:020000040800F2
:10000000D80A002089010008850500081D040008A1
:100010008105000895020008EB0A000800000000B6
:10002000000000000000000000000000250700089C
:1000300099020008000000000D0600084F070008A4
:100040009F0100089F0100089F0100089F01000810
:100050009F0100089F0100089F0100089F01000800
:100060009F0100089F0100089F0100089F010008F0
:100070009F0100089F0100089F0100089F010008E0
:100080009F0100089F0100089F0100089F010008D0
:100090009F0100089F0100089F0100089F010008C0
:1000A0009F0100089F0100089F0100089F010008B0
:1000B0009F010008510700089F0100089F010008E8
:1000C0009F0100089F0100089F0100089F01000890
:1000D0009F010008C90800089F0100089F0100084F
:1000E0009F0100089F0100089F01000800F002F82E
:1000F00000F03AF80AA090E8000C82448344AAF188
:100100000107DA4501D100F02FF8AFF2090EBAE885
:100110000F0013F0010F18BFFB1A43F0010318473B
:100120006024000080240000103A24BF78C878C101
:10013000FAD8520724BF30C830C144BF04680C60ED
:10014000704700000023002400250026103A28BF35
:1001500078C1FBD8520728BF30C148BF0B60704739
:100160001FB51FBD10B510BD00F061F81146FFF7B7
:10017000F7FF00F0B5FE00F07FF803B4FFF7F2FFE1
:1001800003BC00F0B4FC000008480047FEE7FEE7AF
:10019000FEE7FEE7FEE7FEE7FEE7FEE7FEE7FEE737
:1001A00003480449044A054B70470000ED0000086D
:1001B000D8010020D80A0020D8020020D802002050
:1001C000704710B5203AC0F00B80B1E81850203AC3
:1001D000A0E81850B1E81850A0E81850BFF4F5AFE7
:1001E0005FEA027C24BFB1E81850A0E8185044BF71
:1001F00018C918C0BDE810405FEA827C24BF51F8DE
:10020000043B40F8043B08BF7047D20728BF31F8D1
:10021000023B48BF11F8012B28BF20F8023B48BF22
:1002200000F8012B7047704770477047704775465C
:1002300000F02CF8AE4605006946534620F0070052
:10024000854618B020B5FFF7ABFFBDE820404FF062
:1002500000064FF000074FF000084FF0000B21F0B0
:100260000701AC46ACE8C009ACE8C009ACE8C0097D
:10027000ACE8C0098D46704710B50446AFF3008066
:100280002046BDE81040FFF778BF000000487047E7
:100290007401002000BFFEE77047000008B501218F
:1002A0001C2000F0C5F94FF47F40ADF8000010208D
:1002B0008DF8030003208DF802006946084800F01D
:1002C00013F84FF46040ADF8000010208DF80300E3
:1002D00003208DF802006946024800F005F808BDC9
:1002E000000C0140001001402DE9F04102460025BC
:1002F0000026002000230024002791F803C00CF002
:100300000F0591F803C00CF0100CBCF1000F03D0E6
:1003100091F802C04CEA050591F800C0BCF1000F4D
:1003200031D0146800202BE04FF0010C0CFA00F3E0
:10033000B1F800C00CEA03069E4220D183004FF0C2
:100340000F0C0CFA03F7BC4305FA03FC4CEA040457
:1003500091F803C0BCF1280F06D14FF0010C0CFA44
:1003600000FCC2F814C00AE091F803C0BCF1480FC9
:1003700005D14FF0010C0CFA00FCC2F810C0401C73
:100380000828D1D31460B1F800C0BCF1FF0F34DDF0
:10039000546800202EE000F1080C4FF0010808FA24
:1003A0000CF3B1F800C00CEA03069E4221D1830091
:1003B0004FF00F0C0CFA03F7BC4305FA03FC4CEAB0
:1003C000040491F803C0BCF1280F05D100F1080C1A
:1003D00008FA0CF8C2F8148091F803C0BCF1480F79
:1003E00007D100F1080C4FF0010808FA0CF8C2F828
:1003F0001080401C0828CED35460BDE8F08102462E
:10040000002093680B400BB1012000E000207047F2
:100410004161704701617047C160704700BFFEE7EE
:1004200010B5012000F05CF810BD10B5382000F0C8
:1004300057F80F2000F054F8062000F051F8012082
:1004400000F04EF810BD70B504460E460EB9E5B288
:1004500002E004F14000C5B245F0800000F040F831
:1004600070BD70B505460E46144631462846FFF766
:10047000EAFF03E014F8010B00F05AF82078002896
:10048000F8D170BD10B54FF47F411248FFF7C4FF9B
:100490004FF400411048FFF7BBFF4FF480410E4876
:1004A000FFF7B8FF00BF4FF400510B48FFF7B2FF52
:1004B000052000F05BFB80210848FFF7A0FF044601
:1004C0004FF400510448FFF7A3FF04F08000002818
:1004D000E9D110BD000C01400010014000140140A2
:1004E00010B50446FFF7CEFF4FF400410D48FFF76B
:1004F0008FFF4FF480410B48FFF78AFF0A4800EA5C
:1005000004210A48FFF788FF4FF400510548FFF720
:1005100081FF012000F02AFB4FF400510148FFF752
:1005200077FF10BD0010014000FFFF00000C0140EC
:1005300010B50446FFF7A6FF4FF400410D48FFF742
:1005400069FF4FF480410B48FFF762FF0A4800EA59
:1005500004210A48FFF760FF4FF400510548FFF7F8
:1005600059FF012000F002FB4FF400510148FFF752
:100570004FFF10BD0010014000FFFF00000C0140C4
:1005800000BFFEE77047000070B5002100230F2276
:10059000C47804B3154C246804F4E064C4F5E06442
:1005A000210AC1F10403CA40447804FA03F18478B3
:1005B0001440214309010E4C0678A155047804F03B
:1005C0001F050124AC4005786D11AD0005F1E02553
:1005D000C5F8004109E0047804F01F050124AC408F
:1005E000044D0678761145F8264070BD0CED00E00C
:1005F00000E400E080E100E002490143024A1160AA
:10060000704700000000FA050CED00E070470000A4
:1006100029B1064AD2690243044BDA6104E0034A75
:10062000D2698243014BDA6170470000001002403A
:1006300029B1064A92690243044B9A6104E0034AD5
:1006400092698243014B9A6170470000001002409A
:1006500030B500210022002400232D4D6D6805F0E7
:100660000C0121B1042905D0082923D105E0294D29
:10067000056022E0274D05601FE0254D6D6805F4FB
:100680007012234D6D6805F48034022505EB92420B
:100690001CB9214D554305600BE01D4D6D6805F4F7
:1006A00000351DB11C4D5543056002E0194D554301
:1006B000056002E0174D056000BF00BF144D6D6876
:1006C00005F0F0010909154D6B5C0568DD404560DA
:1006D0000F4D6D6805F4E061090A104D6B5C4568CB
:1006E000DD4085600A4D6D6805F46051C90A0B4D07
:1006F0006B5C4568DD40C560054D6D6805F44041A3
:10070000890B074D6B5CC568B5FBF3F5056130BD22
:100710000010024000127A0000093D001E00002077
:100720002E0000207047042808D14FF0E02109690D
:1007300041F004014FF0E022116107E04FF0E021A9
:10074000096921F004014FF0E02211617047704700
:1007500010B50121054800F04AF828B101210348ED
:1007600000F036F800F04EFA10BD00000004004022
:100770007FB505460C4601210220FFF749FFADF881
:100780000850ADF804400020ADF80A00ADF80600AE
:1007900001A90E4800F046F8012211460B4800F06E
:1007A00037F81D208DF8000000208DF8010003208F
:1007B0008DF8020001208DF803006846FFF7E4FE83
:1007C0000121024800F007F87FBD0000000400404E
:1007D000CA430282704721B1028842F001020280BE
:1007E00004E002884FF6FE731A400280704730B56D
:1007F0000246002000230024158A05EA010395899A
:1008000005EA010413B10CB1012000E0002030BD65
:100810001AB183890B43838102E083898B438381EF
:1008200070470000002202881D4B98420ED01D4BDD
:1008300098420BD0B0F1804F08D01B4B984205D0A6
:100840001A4B984202D01A4B984204D14FF68F733C
:100850001A404B881A43174B984207D0164B9842C0
:1008600004D04FF6FF431A40CB881A4302808B888E
:1008700083850B8803850A4B98420BD0094B98421D
:1008800008D00E4B984205D00D4B984202D00D4B2C
:10089000984201D10B7A03860123838270470000BE
:1008A000002C0140003401400004004000080040DA
:1008B000000C0040001000400014004000400140C7
:1008C000004401400048014010B540F225511D4848
:1008D00000F04AF810B31B4800F002F9C4B21A48FD
:1008E000008800F40040C8B91748008800F4804030
:1008F00060B10A2C03D000201349088020E0124880
:10090000008840F400401049088019E00D2C06D101
:100910000D48008840F480400B49088010E00A48E8
:100920000088C0F30D0009490C5407480088401C9A
:100930000549088008460088C72801DD0020088096
:1009400010BD0000003801401C000020AC00002059
:1009500021B1828942F40052828104E082894DF6FD
:10096000FF731A408281704770B50246002400234D
:100970000025002040F66A16B14200D100BFC1F345
:10098000421501F01F03012606FA03F3012D02D1DF
:100990009689334006E0022D02D1168A334001E0E9
:1009A000968A33400C12012606FA04F41688344065
:1009B00013B10CB1012000E0002070BDF0B503467A
:1009C000002400260025002040F66A17B94200D115
:1009D00000BF1846C1F3421401F01F06012707FAB1
:1009E00006F5012C01D10C3004E0022C01D11030AD
:1009F00000E014301AB107682F43076002E007686F
:100A0000AF430760F0BD00002DE9F04786B0054612
:100A10000E460024A24600BFA1460027B08900B1BF
:100A200000BF2F462C8A4CF6FF700440F088044328
:100A30002C82AC894EF6F3100440B088318908430B
:100A4000718908430443AC81AC8A4FF6FF400440EF
:100A5000B0890443AC8201A8FFF7FAFD1F48874222
:100A600002D1DDF810A001E0DDF80CA0A88900F4A7
:100A7000004040B10AEBCA0000EB0A10316849009F
:100A8000B0FBF1F807E00AEBCA0000EB0A1031688E
:100A90008900B0FBF1F86420B8FBF0F004012009F4
:100AA000642101FB1089A88900F4004040B1322084
:100AB00000EBC900B0FBF1F000F00700044308E0D0
:100AC000322000EB09106421B0FBF1F000F00F00C0
:100AD00004432C8106B0BDE8F087000000380140D7
:100AE00001468888C0F30800704700BFFEE7014652
:100AF00000BF704708B501210820FFF799FD2020AD
:100B0000ADF8000010208DF8030003208DF80200DE
:100B100069460448FFF7E8FB20210248FFF778FC0C
:100B200008BD0000000C014010B56FF00400FFF795
:100B3000FAFD0A4800680A49B0FBF1F0094908705B
:100B40000846007800EB4001C1EBC0104FF6FF7182
:100B500001EAC0000449088010BD00000000002028
:100B600000127A0014000020160000200146114AED
:100B700012884A434FF0E0235A6100229A611A46D4
:100B8000126942F001021A6100BF4FF0E0221069C1
:100B900000F001021AB100F48032002AF5D04FF0C3
:100BA000E022126922F001024FF0E0231A610022D4
:100BB0009A617047160000200146114A12784A4394
:100BC0004FF0E0235A6100229A611A46126942F0FE
:100BD00001021A6100BF4FF0E022106900F001022B
:100BE0001AB100F48032002AF5D04FF0E0221269E9
:100BF00022F001024FF0E0231A6100229A6170474F
:100C00001400002010B500F05FF80149086010BD25
:100C1000380000202DE9F04100F056F81449086032
:100C2000084600681349096888421FD910480068BF
:100C300001F0D4FA104908600E48006801F0CEFABD
:100C400004460D480168204601F00DFC0A49086081
:100C50000846006801F02AF906460022074B00F01A
:100C6000CDFD044600F0F0FC03490860BDE8F081CA
:100C700034000020380000203C00002000F87840BC
:100C800008B501210820FFF7D3FC0120ADF80000D2
:100C900010208DF8030003208DF8020069460948F2
:100CA000FFF722FB0220ADF8000048208DF803007A
:100CB00069460448FFF718FB01210248FFF7AAFB29
:100CC00008BD0000000C014070B501201949086002
:100CD000FFF772FF00201849C1F88001002400BF0F
:100CE000144800680028FBD1002513E001201149B9
:100CF0007C3108606400FFF75FFF00200E49C1F8F7
:100D000080010C48006800B1641C0120FFF754FF0B
:100D1000681CC5B2182DE9DB012006497C3108604A
:100D200084F40004FFF748FF00200349C1F8800164
:100D3000204670BD048121420080214208B5012176
:100D40000420FFF775FC0F20ADF8000010208DF88F
:100D5000030003208DF8020069460848FFF7C4FA33
:100D6000F020ADF8000028208DF8030003208DF856
:100D7000020069460148FFF7B7FA08BD00080140C4
:100D800010B54FF0FF34554800684FF6F072104030
:100D900040F00F0151480C38FFF73EFB4F48001F51
:100DA000006800F0F00008B9204610BD0A20FFF7E7
:100DB000DDFE4A48001F006800F0F00010B94FF057
:100DC000FF30F2E7454800684FF6F0721040411CD2
:100DD00042480C38FFF720FB4048001F006800F035
:100DE000F000102806D0202806D0402806D0802801
:100DF00008D105E0642406E0632404E0622402E0F4
:100E0000612400BF00BF00BF344800684FF6F07295
:100E10001040811C31480C38FFF7FEFA2F48001FA4
:100E2000006800F0F000102806D0202806D04028E6
:100E300006D0802808D105E02E2406E0392404E0FD
:100E4000362402E0332400BF00BF00BF23480068FF
:100E50004FF6F0721040011D20480C38FFF7DCFA05
:100E60001E48001F006800F0F000102806D020285F
:100E700006D0402806D0802808D105E0302406E0BE
:100E8000382404E0352402E0322400BF00BF00BF54
:100E9000124800684FF6F072104040F008010F4809
:100EA0000C38FFF7B9FA0D48001F006800F0F00099
:100EB000102806D0202806D0402806D0802808D147
:100EC00005E0652406E0372404E0342402E0312400
:100ED00000BF00BF00BF204667E700000C080140CC
:100EE00000240025FFF7CCFEFFF71EFEFFF702FEF1
:100EF0004FF4A060FFF780FB4FF4165000F054FB56
:100F0000FFF71CFF41F61F4140F2E730FFF730FCCE
:100F1000FFF7C4F9FFF789FA00F0E0F92AE000F0E2
:100F2000FBF9FFF72DFF044602E0FFF729FF044617
:100F3000642CFAD11AD100F0FBF90546302402E006
:100F4000FFF71EFF0446642CFAD10B49284601F036
:100F500059FA00D20DE0284600F010F8302402E0E3
:100F6000FFF70EFF0446642CFAD102E000F0D4F93A
:100F700000BF00BFD3E7000000409C452DE9F04FC3
:100F80008FB083461822C84908A8FFF71AF94FF016
:100F90000009FFF745FAC54A00210846FFF761FA44
:100FA000C34A01210B20FFF75CFA01210520FFF75E
:100FB0004AFA18E0632C0BD1B9F1000F13DDA9F147
:100FC000010909F10501C8B20121FFF73CFA0AE065
:100FD000002C08DB484609F1010908A941F8204026
:100FE000E0B2FFF7A5FAFFF7CBFE04466428E1D193
:100FF0000D99A1F1300000F059FD0546AD4AAE4B08
:1010000000F06CFDCDE904010C99A1F1300000F075
:101010004DFDAA4AAA4BCDE9000100F05FFD05464F
:101020000E460899303964225143099A303A02EB4E
:10103000820201EB42010A9A1144A1F1300000F052
:1010400035FD07462A46334600F030FBCDE9020164
:10105000DDE9042300F02AFBCDE9060100F0F4FAF3
:1010600082465146584601F001F98346FFF7D8F908
:10107000944A00210846FFF7F4F99349584601F0D5
:10108000C1F94ED2C720FFF72BFA8F49584600F01E
:10109000A7FF07468D4900F035FF064601F07EF8B0
:1010A000C5B22846FFF744FAC820FFF719FA584698
:1010B00001F058F842F2107190FBF1F201FB1200BE
:1010C0004FF47A7190FBF1F03030C5B22846FFF74B
:1010D0002FFAC920FFF704FA584601F043F84FF4FD
:1010E0007A7190FBF1F201FB1200642190FBF1F0A8
:1010F0003030C5B22846FFF71BFACA20FFF7F0F9D7
:10110000584601F02FF8642190FBF1F201FB120028
:101110000A2190FBF1F03030C5B22846FFF708FAFB
:1011200081E06B49584601F06DF939D2C820FFF7CC
:10113000D7F96749584600F053FF0746634900F066
:10114000E1FE064601F02AF8C5B22846FFF7F0F99D
:10115000C920FFF7C5F9584601F004F84FF47A7139
:1011600090FBF1F201FB1200642190FBF1F03030B2
:10117000C5B22846FFF7DCF9CA20FFF7B1F9584697
:1011800000F0F0FF642190FBF1F201FB12000A2154
:1011900090FBF1F03030C5B22846FFF7C9F942E0C4
:1011A0004C49584601F02EF925D2C920FFF798F98D
:1011B0004849584600F014FF0746444900F0A2FE93
:1011C000064600F0EBFFC5B22846FFF7B1F9CA208A
:1011D000FFF786F9584600F0C5FF642190FBF1F255
:1011E00001FB12000A2190FBF1F03030C5B2284615
:1011F000FFF79EF917E03849584601F003F912D27B
:10120000CA20FFF76DF9584600F0ACFF642190FB4F
:10121000F1F201FB12000A2190FBF1F03030C5B26F
:101220002846FFF785F9CB20FFF75AF9584600F01A
:1012300099FF0A2190FBF1F201FB12003030C5B298
:101240002846FFF775F9CC20FFF74AF92E20FFF763
:101250006FF9CD20FFF744F91F49584601F006F811
:10126000064600F07FFF0A2190FBF1F201FB12001D
:101270003030C5B22846FFF75BF9CE20FFF730F9D2
:101280001449584600F0F2FF064600F06BFF0A21B1
:1012900090FBF1F201FB12003030C5B22846FFF797
:1012A00047F90FB0BDE8F08F6825000885000020E1
:1012B000920000207B14AE47E17A843F9A99999975
:1012C0009999B93F9800002000401C460000404218
:1012D00000007A440000C8420000204110B5FFF72A
:1012E0009FF80B4A00210846FFF7BBF8094A012185
:1012F0000020FFF7B6F84FF47A70FFF737FC4FF491
:101300007A70FFF733FC4FF4FA70FFF72FFC10BD33
:10131000400000204900002010B5FFF781F8034A83
:1013200000210846FFF79DF810BD00005B0000207B
:101330002DE9F041002500218F48FFF74CFAFFF717
:101340006FF88E4A00210846FFF78BF800208C4981
:10135000086000241CE0FFF75DFC4FF07E518848D8
:10136000006800F04FFF03D2002085490860641E2A
:10137000042C0CDD83498248006800F031FE0646EB
:10138000294600F0BFFD05460A20FFF7EFFB641C6D
:10139000142CE0DB01217848FFF71DFA7A49284632
:1013A00001F030F820D2794A00210846FFF759F8B9
:1013B0000120774908604FF47A70FFF7D7FB0020CF
:1013C0007449C1F89401C820FFF7D0FB012070498F
:1013D00008604FF4FA70FFF7C9FB00206D49C1F8AF
:1013E00094012846BDE8F0816B49284601F00AF8CF
:1013F00039D2C820FFF774F86749284600F0F0FD9D
:101400008046664900F07EFD074600F0C7FEC6B282
:101410003046FFF78DF8C920FFF762F8284600F044
:10142000A1FE4FF47A7190FBF1F201FB12006421EE
:1014300090FBF1F03030C6B23046FFF779F8CA20A1
:10144000FFF74EF8284600F08DFE642190FBF1F284
:1014500001FB12000A2190FBF1F03030C6B2304699
:10146000FFF766F842E04E49284600F0CBFF25D250
:10147000C920FFF735F84A49284600F0B1FD8046FB
:10148000464900F03FFD074600F088FEC6B23046F0
:10149000FFF74EF8CA20FFF723F8284600F062FE57
:1014A000642190FBF1F201FB12000A2190FBF1F0A4
:1014B0003030C6B23046FFF73BF817E039492846CE
:1014C00000F0A0FF12D2CA20FFF70AF8284600F069
:1014D00049FE642190FBF1F201FB12000A2190FB0E
:1014E000F1F03030C6B23046FFF722F8CB20FEF7DD
:1014F000F7FF284600F036FE0A2190FBF1F201FBCF
:1015000012003030C6B23046FFF712F8CC20FEF79A
:10151000E7FF2E20FFF70CF8CD20FEF7E1FF214971
:10152000284600F0A3FE074600F01CFE0A2190FBAF
:10153000F1F201FB12003030C6B23046FEF7F8FF80
:10154000CE20FEF7CDFF1649284600F08FFE074655
:1015500000F008FE0A2190FBF1F201FB120030308E
:10156000C6B23046FEF7E4FFCF20FEF7B9FF672092
:10157000FEF7DEFF284635E7000400406C0000203F
:101580003C0000200000704100409C457900002094
:10159000948121420080214200007A4400004042B0
:1015A0000000C8420000204110B586B00446012169
:1015B00044F20400FFF73CF84FF40070ADF814005B
:1015C00003208DF8160018208DF8170005A91C4877
:1015D000FEF78AFE4FF48060ADF8140004208DF809
:1015E000170005A91648FEF77FFE25208DF800009C
:1015F00003208DF801008DF8020001208DF8030012
:101600006846FEF7C1FF01940020ADF80800ADF870
:101610000A00ADF80C00ADF810000C20ADF80E007B
:1016200001A90848FFF7F0F9012240F225510548C9
:10163000FFF7C4F901210348FFF78AF906B010BD8E
:10164000000801400038014021F00042A2F1605240
:10165000B2F5801F01F0004328BFD2F17F6C0BD997
:101660005FEA001C43EAC20242EB507018BF7047A9
:1016700028BF20F001007047B2F5801FBCBF18469C
:1016800070474FEA410C1CF5001F02D2084600F0DB
:10169000B4BE70B500F0CCFA00000089FFF7F6BFC9
:1016A0004FF00040A0F580007047000010B591EAAF
:1016B000030F48BF83F0004300F11683841A71EBD7
:1016C000030C05D2121943EB0C03001B61EB0C0158
:1016D000DFF824E14FEA1154A4EB135C1EEA430F38
:1016E00018BF9EEA445F73D023EA0E03DCF1200E9C
:1016F00021EA045143F4801332D322FA0CFE10EB9A
:101700000E0023FA0CFE41EB0E01CCF1200E03FA81
:101710000EFE10EB0E0051F10001B1F5801FCCF16F
:10172000200E32D201EB045112FA0EF2BDE8104045
:1017300058BF7047401C38BF5FEA420218BF70476D
:10174000002814BF20F0010041F100014FEA4103DD
:1017500013F5001F38BF7047A1F1C04100F0B6BAC1
:10176000012A43EB0302ACF1200CDCF11F0E32BF67
:101770004FF0000E23FA0CF310EB030041EB045181
:10178000B4EB115FD0D0A1EB045101F580114908F1
:101790005FEA300001EB04510ED350F1000038BF76
:1017A00012FA0EFE08D1BDE81040C9E7401C38BF50
:1017B0005FEA4202CAD1C3E7BDE810404FEA4103E5
:1017C00013F5001F38BF7047A1F1C04100F07EBA89
:1017D0009EEA445F08D011EA5E0FBDE8104004BFE6
:1017E00001F0004100207047BDE8104070B500F0E6
:1017F0001FFA00BF64FBBE3E0000E0FF2DE9C041C0
:1018000030B4DFF8A0C23CEA111418BF3CEA13144C
:1018100000F0EC8081EA03051CEA111444EAD57457
:1018200018BF1CEA131500F0C780A4EB05044FF0A5
:10183000004545EAC12145EAC32341EA505143EA44
:10184000525304F17F74994204F500344FEAC020EA
:101850004FEAC22208BF904200F09C804FEA136515
:101860000FF24016765D4FEA134506FB05F7C7F108
:10187000807706FB07F74FEAD737A7FB0368764266
:10188000C8F58038A7FB06CE38BFA8F1010807FBD2
:1018900008E64FF0000EA6FB028CE6FB03CEDCF15F
:1018A000000CCEF1004E38BFAEF1010EA6FB0C5875
:1018B0004FF000074FF00005E6FB0E87A1FB08C6BE
:1018C000A0FB07CE16EB0E0645F10005E1FB076510
:1018D00015F1E04E7EBFA4F580345FEA46066D4107
:1018E00016F1800745F100054FEA17274FEA066613
:1018F00047EA0567A6F1DE46B6F1805F4FEA152597
:101900001FD9384624F0010C05EBC471BCF1FE6F01
:1019100001EB0C1102D8F0BCBDE8008124425CBF91
:1019200001F5801E9EEAC47F02D4F0BCBDE80081B0
:10193000244238D4F0BCA1F1C041BDE8004100F020
:10194000C5B94FEAD22242EA43524FEAD323A7FB5A
:1019500002864FEAD02040EA415007FB03661EEAA8
:101960000E0F4FEAD12105FB026658BFA6EB0056C9
:10197000B6EB00564FEA520E4EEAC37E18EB0E0E3F
:1019800056EB530EBDD518EB02085E417F1C55F196
:101990000005B6E74FF480154FF000074FF0000642
:1019A0004FF00008ADE7F0BC4FF0000001F1C0417E
:1019B00001F00041BDE8008111EA0C1F0CEA13158B
:1019C00000D00CE013EA0C1F00F025804FF000005F
:1019D000F0BC81EA030101F00041BDE80081F0BCE8
:1019E000BDE8004181EA030100F070B9F0BCBDE838
:1019F000004170B500F01CF9097EFC3E00F007B80C
:101A000081EA03014FF0000001F00041704781EAD4
:101A1000030100F05BB9F0BCBDE800414FF00000ED
:101A200021497047FFFDFBF9F7F5F4F2F0EEEDEB1D
:101A3000E9E8E6E4E3E1E0DEDDDBDAD8D7D5D4D3CC
:101A4000D1D0CFCDCCCBCAC8C7C6C5C4C2C1C0BF18
:101A5000BEBDBCBBBAB9B8B7B6B5B4B3B2B1B0AF1E
:101A6000AEADACABAAA9A8A8A7A6A5A4A3A3A2A102
:101A7000A09F9F9E9D9C9C9B9A99999897979695BD
:101A800095949393929191908F8F8E8E8D8C8C8B59
:101A90008B8A8989888887878685858484838382E1
:101AA000828181800000FF070000F87F10F0004273
:101AB00048BF4042B0FA80F310FA03F10AD0C3F1F4
:101AC0001D0303F580634FEA415002EB035202EB22
:101AD000D12170474FF0000070470000DFF848C187
:101AE00070B51CEA111E1EBF1CEA13159EEA0C0FEE
:101AF00095EA0C0F00F06F8081EA030423EA4C138F
:101B00004EEAD47E21EA4C1141F4801143F4801353
:101B1000AE44A1FB024CA0FB0365AEF17F7E3619FB
:101B200055EB0C05A1FB034C4CF10003A0FB021C80
:101B300016EB0C06654153F10003094218BF46F04D
:101B4000010613F4007F0BD14FEA03314FEA053051
:101B5000340341EA155140EA16506FF003020AE0DF
:101B60004FEAC3214FEAC520F40241EA555140EA49
:101B700056506FF0020202EB2E4201EB025585EA4D
:101B8000CE710AD05FEA440C18BF24F0004450F133
:101B9000000041F1000120EAD47040F2FE7C624571
:101BA00000D270BDA84214BF4FF080444FF04044B3
:101BB000002E08BF0024BEF1806FA8BFA1F1C04174
:101BC000BDE8704080F282804FF0000001F1C0411A
:101BD00001F0004170479EEA0C0F0CEA131518BF84
:101BE00095EA0C0F06D04FF0000081EA030E0EF0CC
:101BF000004170BD00F01CF88900013E00F007B8FC
:101C000000F009B84FEA430C5FEA5C5C08D081EA57
:101C1000030100F05BB84FEA410C5FEA5C5CF6D16F
:101C20004FF00000014970470000FF070000F87FF7
:101C30000EF1020E2EF0030E5EF8046B364205D450
:101C4000012A43EB030515F5001F12D8012841EBCB
:101C5000010C1CF5001F0CD80ED14FEAD17C15F5F4
:101C6000001F0CEB4C0C0CF1020C08BF4CEBD37CAE
:101C700004E04FF0080C01E04FEAD37C0CEB4C057C
:101C800026FA05F606F00706B6F1040C06D20EEBAE
:101C9000860CBDE870404CF0010C6047DFE80CF0AA
:101CA000090B02024FF000414FF00000A1F50021A6
:101CB00070BD19461046012851EB010418BFD4F538
:101CC000001484BF002001F0004170BD0808A0F599
:101CD00000114FEA3101704710B591EA030F48BF78
:101CE00083F000433FF5EAAC841A71EB030C07D292
:101CF00012198CF0004C43EB0C03001B61EB0C0140
:101D0000DFF8A4E14FEA1154A4EB135C1EEA430F81
:101D100018BF9EEA445F00F0B08023EA6E0352428F
:101D200021EA0451C3EB6E0338BF5B1EDCF1200EC9
:101D300025D322FA0CFE10EB0E0043FA0CFE41EB09
:101D40000E01CCF1200E03FA0EFE10EB0E0051F145
:101D50000001CCF1200E29D412FA0EF201EB04514D
:101D6000BDE8104058BF7047401C1CBFB2F1004F87
:101D7000704700280CBF491C20F00100704712EB8F
:101D8000020E43EB030218BF4FF0010E4EEA42026F
:101D9000ACF1200CDCF11E0E54D943FA0CFE10EB12
:101DA0000E0051F1FF31CCF11E0ED5D50EF1010E12
:101DB00012FA0EFE404141EB010101EB445C5FEA87
:101DC0005C5C10D910EBDE7001EB045138BFBEF142
:101DD000004FBDE8104018BF704700280CBF491CD9
:101DE00020F00100704730D24FEAD42C11F50011D9
:101DF00024F400641BD0B1FA81F20B3AA41AA41E99
:101E0000D2F12003914030FA03F31943904001EBE3
:101E1000CC71002C01EB0451BDE81040A8BF704705
:101E200001F1C0414FF0000001F000417047B0FAED
:101E300080F310FA03F100D110BDE41A173C4805F5
:101E4000C90AE4E701EB045110BD491001EB04514C
:101E5000BDE810404FEA300002E04FF0000170474B
:101E60004A0008BF0042F8D0B2F5001F28BF7047F3
:101E700001F000414FF0000070479EEA445F07D038
:101E800011EA5E0FBDE8104004BF0021002070473A
:101E9000BDE8104070B5FFF7CBFE00BF40DFF63E57
:101EA00083F00041104670470000E0FF43004FEA16
:101EB000D30C4FEA3C0C43401FBF40070CF160516C
:101EC00013F0FE4F70471CF0006F03D100200CF0A0
:101ED000004170470CF0004343EA507010B540EAEF
:101EE000CC0000F044FA00BF000000924FEA00016D
:101EF000FFF7ECBE4FF000414FF00000A1F50021CC
:101F00007047000090EA010F48BF81F0004100F1E6
:101F1000BC82421A3CBF801A89184FEAD0524FF057
:101F20007F4C1CEA410FA2EBD15318BF9CEA026F11
:101F300000F03B804FF0004C4CEA00204CEA0121BD
:101F400021FA03FC10EB0C0C1ED202F1FF325FEA07
:101F50001C2040EBC25038BF70471CF07F0F4FEA87
:101F6000400C18BFBCF17F4F38BF7047C3F120034E
:101F7000994008BF20F00100BCF17F4F38BF704787
:101F8000A0F1C04000F039BA4FEA3C00000A40EB33
:101F9000C25028BF1CF0FF0F4FEA400CE6D018BF1C
:101FA000BCF17F4F38BF7047EAE79CEA026F05D06B
:101FB00010EA5C0F08BF00F00040704710B500F059
:101FC000D6F900BF64FBBE3E401058BFC0F1404090
:101FD000491058BFC1F140418142EFF30080704782
:101FE0004FF47F0C1CEAD0121EBF1CEAD11392EAF8
:101FF0000C0F93EA0C0F00F0858090EA010F48BFA8
:1020000042F4807240F4000C41F400002CF07F4157
:1020100020F07F4000B58142A2EB03020FF2081CC2
:10202000ACEB504EC0F100009EF800E04FEA4E0EBF
:1020300000FB0EFC38BF49004FEA2C1C02F5FA02E7
:102040000CFB0EF34FEACE1E4FEA112C4FEAC121D2
:102050000EEB635E42EB22420EFB0CFC4FEA1C537C
:1020600000FB03114FEA112C4FEA01310EFB0CFC6F
:102070004FEADC4C00FB0C11C14228BF09184CEBA5
:1020800003335DF804EB10EB410143EBC250B2F5B2
:102090007C0F38BF704729D512F0F00F1CBF00F13C
:1020A000C04000F0004070470081828384858687AD
:1020B00088898B8C8D8E8F919293959697999A9C07
:1020C0009D9FA0A2A3A5A7A8AAACAEB0B2B3B5B776
:1020D000B9BCBEC0C2C5C7C9CCCED1D4D7D9DCDF4C
:1020E000E2E6E9ECF0F3F7FAFE0000004FEA400CFC
:1020F0000CF1807CBCF17E4F28BF7047B0F1C0402E
:1021000000F07BB990EA010F0CEAD11348BF42F40A
:102110008072624538BF634507D213F47F0F16D033
:1021200080EA010000F00040704710B500F01FF990
:10213000097EFC3E00F005B880EA010000F0004096
:10214000704780EA010000F0004000F056B912F438
:102150007F0F04BF0248704780EA010000F04DB9CC
:102160000000C07F41000B0ED3F19E0208D950F44D
:1021700000034FEA032323FA02F048BF40427047AE
:1021800010B500F0F4F800BF499224800020704799
:102190006FF0004282EA200070470000C10DD1F1CB
:1021A0009E0206DB4FEA002343F0004323FA02F0CD
:1021B0007047004207D54FEA4001B1F1FE4F02D20D
:1021C0004FF00000704710B500F0D1F8499224801C
:1021D000002070476FEA200070470000B0FA80F3DB
:1021E00010FA03F2C3F19D030AD0D90501EB1220C6
:1021F000530638BF704700F1010008BF20F001000E
:102200007047000050EA010C00F113801CF5000F2C
:1022100058BFBCF5000F01D48842704707D710F5AE
:10222000000F58BF11F5000F15D48842704789423E
:1022300070471CF5000F04D5BCF5000FF7D581429F
:1022400070474FF0807C1CEB400F38BF1CEB410FF8
:1022500001D28142704710B500F089F892244900FC
:102260004FF000504FF08051FFF7AEBE4FF47F0C9F
:102270001CEAD0121EBF1CEAD11392EA0C0F93EA9B
:102280000C0F00F0478090EA010F48BF42F48072C3
:102290004FF0004C4CEA00204CEA012102EB030213
:1022A000A0FB0113A2F50002002918BF43F00103AF
:1022B0005B0028BF4FEA330342EB22425FEA132C54
:1022C0004CEBC2502EBFBCEB436FB2F57C0F704796
:1022D0004FEA036CBCF1004F08BF20F00100B2F5DB
:1022E0007C0F38BF70470BD582F0FF0212F5803F9C
:1022F000C8BF704700F1C040D8BF00F00040704731
:1023000000F5000C5FEA4C0C48BF7047B0F1C040CC
:1023100000F073B890EA010F0CEAD11348BF42F401
:102320008072624538BF634504D280EA010000F044
:102330000040704710B500F01AF800BF8900013E58
:1023400000F007B800F009B85FEA410C5FEA1C6CC6
:1023500008D080EA010000F050B85FEA400C5FEA64
:102360001C6CF6D14FF00040A0F5800070470EF1D4
:10237000020E2EF0030E5EF8044B244204D44FEA02
:102380004102B2F17F4F11D84FEA4003B3F17F4FC2
:102390000CD80ED14FEAD07CB2F17F4F0CEB4C0C35
:1023A0000CF1020C08BF4CEBD17C04E04FF0080CA0
:1023B00001E04FEAD17C0CEB4C0324FA03F404F067
:1023C0000704B4F1040C06D20EEB840CBDE81040F7
:1023D0004CF0010C6047DFE80CF0070802024FF0F8
:1023E0000040A0F5800010BD0846420018BFD2F1A1
:1023F000807288BF00F0004010BDFF2141EAD0503C
:10240000C005704751EA000C00F113801CF5000F65
:1024100058BFBCF5000F01D48142704707D711F5B2
:10242000000F58BF10F5000F15D481427047894244
:1024300070471CF5000F04D5BCF5000FF7D5884296
:1024400070474FF0807C1CEB410F38BF1CEB400FF6
:1024500001D28842704780EA010081EA000180EAE7
:102460000100FFF7F8BE80F0004090EA010F7FF511
:1024700050AD81F0004100F008B8000090EA010F73
:1024800048BF81F000413FF544AD421A04D882F0C4
:102490000042A0EB020011444FEAD0524FF07F4CB3
:1024A0001CEA410FA2EBD15318BF9CEA026F4AD03D
:1024B0004FF0004C4CEA00204CEA012121FA03FCC9
:1024C000B0EB0C0C0FD412F0FE0F36D05FEA4C00CC
:1024D0001DD5001240EBC25038BF70471CF03F0FB3
:1024E00018BF70470BE0A2F101025FEA1C2040EB2D
:1024F000C25038BF70471CF07F0F18BF7047C3F140
:102500002003994014BF401E20F00100704780084E
:102510004FEA122308BF7047B0FA80FCA2EB0C020E
:10252000CCF1280C60FA0CF093EA122F04BF00EBF8
:10253000C25070474FEAC3707047130A5FEADC105D
:1025400008BF7047F6E79CEA026F04D010EA5C0F00
:1025500008BF0020704710B5FFF709FF40DFF63EC7
:1025600081F00040704700003000000030000000A3
:10257000300000003000000030000000300000009B
:10258000A025000800000020AC0000002801000881
:102590004C260008AC0000202C0A00004401000872
:1025A00000A24A0400000000000000000102030431
:1025B00006070809000000000000000000000000FD
:1025C00000000102030401020304060708090204D3
:1025D00006080000000000000000000000000000ED
:1025E00077656C636F6D65210073797374656D2019
:1025F0006C6F6164696E672E2E2E00507265737366
:10260000274427746F20737461727400776569675B
:102610006874696E672E2E2E006F76657277656915
:102620006768742100696E707574207072696365E3
:102630003A002F6772616D0074686520746F746171
:0C2640006C2070726963652069730000F3
:040000050800018965
:00000001FF
